:020000040000FA
:0600000053EF1AF012009C
:0600080004EF08F01200F5
:060018000CEF08F01200DD
:0610000053EF1AF012008C
:061008001CEF08F01200CD
:0610180004EF0BF01200D2
:06102A000100BE340000CD
:08103000BB0000001A000000E3
:08103800DACFE4FFE2CFDAFF9A
:10104000E9CFE4FFEACFE4FFF6CFE4FFF7CFE4FF18
:10105000F5CFE4FFF3CFE4FFF4CFE4FFFACFE4FFF2
:1010600000EE00F0100EE80403E3EECFE4FFFBD740
:1010700000EE10F0040EE80403E3EECFE4FFFBD72C
:10108000E652F2A49DD28450040B01E0010E00014F
:101090008E5D01E178D0ECEC10F08450040B02E09E
:1010A000000E01D0010E146E8250040B01E0010EFF
:1010B000141817E0050E0001725F000E735B745B7D
:1010C000755B620E725D2A0E7359000E7459000E24
:1010D000755906E2E60E726F2D0E736F746B756BA9
:1010E00017D0050E00017227000E73237423752399
:1010F000D880E60E72552D0E7355000E7455000EF5
:10110000755506E2620E726F2A0E736F746B756B03
:1011100072C07EF073C07FF074C080F075C081F043
:10112000640E096E0A6A0B6A0C6A7EC004F07FC006
:1011300005F080C006F081C007F007EC1AF004C08B
:101140007EF005C07FF006C080F007C081F07EC051
:1011500004F07FC005F080C006F081C007F0640E87
:10116000096E0A6A0B6A0C6ACFEC19F00050000194
:10117000725D826F01507359836F02507459846F8E
:1011800003507559856F8250020B01E0010E8F5D8F
:1011900050E0ECEC10F08250020B01E0010E146EF6
:1011A0008250010B141815E000017E07000E7F5BD2
:1011B000805B815B6B0E7E1905E17F5103E18051FD
:1011C00001E1815105E1750E7E6F7F6B806B816B54
:1011D00014D000017E2B000E7F2380238123760E06
:1011E0007E1905E17F5103E1805101E1815105E163
:1011F0006C0E7E6F7F6B806B816B7EC004F07FC056
:1012000005F080C006F081C007F0640E096E0A6A1E
:101210000B6A0C6ACFEC19F0005000018225726F46
:1012200001508321736F02508421746F0350852114
:10123000756F0001CE051FE10001902B000E912378
:1012400092239323D880E70E9055030E9155000EFC
:101250009255000E93550EE2906B916B926B936BCF
:101260000001CE6B7AC072F07BC073F07CC074F06A
:101270007DC075F00ED072C0E6FF73C0E6FF74C08B
:10128000E6FF75C0E6FFA8EC0EF0E552E552E55228
:10129000E552010E836E816A00016051EA6ABB0F5C
:1012A000E96E000EEA22EF503F0B806E060E146EC0
:1012B0006051EA6ABB0FE96E000EEA22EF5014C0DB
:1012C000E7FFE75204E0E8427F0BE706FCE1030B8F
:1012D000846EC5C0E6FF45EC1AF0E552020E836E3F
:1012E000816A00016151EA6ABB0FE96E000EEA22D1
:1012F000EF503F0B806E060E146E6151EA6ABB0F11
:10130000E96E000EEA22EF5014C0E7FFE75204E056
:10131000E8427F0BE706FCE1030B846EC5C0E6FFE5
:1013200045EC1AF0E552040E836E816A00016251A9
:10133000EA6ABB0FE96E000EEA22EF503F0B806EA7
:10134000060E146E6251EA6ABB0FE96E000EEA22C5
:10135000EF5014C0E7FFE75204E0E8427F0BE706D6
:10136000FCE10109846EC5C0E6FF45EC1AF0E552C8
:10137000080E836E816A00016351EA6ABB0FE96E51
:10138000000EEA22EF503F0B806E060E146E635182
:10139000EA6ABB0FE96E000EEA22EF5014C0E7FFC5
:1013A000E75204E0E8427F0BE706FCE1030B846EA2
:1013B000C5C0E6FF45EC1AF0E552100E836E816A57
:1013C00000016451EA6ABB0FE96E000EEA22EF5099
:1013D0003F0B806E060E146E6451EA6ABB0FE96E15
:1013E000000EEA22EF5014C0E7FFE75204E0E842A3
:1013F0007F0BE706FCE1030B846EC5C0E6FF45ECFE
:101400001AF0E552400E836E816A00016651EA6A65
:10141000BB0FE96E000EEA22EF503F0B806E060E06
:10142000146E6651EA6ABB0FE96E000EEA22EF50B5
:1014300014C0E7FFE75204E0E8427F0BE706FCE157
:10144000030B846EC5C0E6FF45EC1AF0E552800E32
:10145000836E816A00016751EA6ABB0FE96E000E74
:10146000EA22EF503F0B806E060E146E6751EA6A57
:10147000BB0FE96E000EEA22EF5014C0E7FFE752FF
:1014800004E0E8427F0BE706FCE1030B846EC5C075
:10149000E6FF45EC1AF0E552836A010E816E000109
:1014A0006851EA6ABB0FE96E000EEA22EF503F0B6B
:1014B000806E060E146E6851EA6ABB0FE96E000E6C
:1014C000EA22EF5014C0E7FFE75204E0E8427F0B46
:1014D000E706FCE10109846EC5C0E6FF45EC1AF0A1
:1014E000E552836A020E816E00016951EA6ABB0F00
:1014F000E96E000EEA22EF503F0B806E060E146E6E
:101500006951EA6ABB0FE96E000EEA22EF5014C07F
:10151000E7FFE75204E0E8427F0BE706FCE1030B3C
:10152000846EC5C0E6FF45EC1AF0E552836A040EEE
:10153000816E00016A51EA6ABB0FE96E000EEA2271
:10154000EF503F0B806E060E146E6A51EA6ABB0FB5
:10155000E96E000EEA22EF5014C0E7FFE75204E004
:10156000E8427F0BE706FCE1030B846E0001CA072B
:10157000000ECB5BCC5BCD5BCA51CB11CC11CD1136
:1015800006E1C86BCA69010ECB6FCC6BCD6BC8513D
:101590000CE181BC0AD0CA69010ECB6FCC6BCD6B5C
:1015A00049EC10F00001010EC86FC95108E182BE7C
:1015B00006D0CA69010ECB6FCC6BCD6BC96FF294AC
:1015C000E55200EE13F0040EE80403E3E5CFEDFF6F
:1015D000FBD700EE0FF0100EE80403E3E5CFEDFFBC
:1015E000FBD7E5CFFAFFE5CFF4FFE5CFF3FFE5CF7B
:1015F000F5FFE5CFF7FFE5CFF6FFE5CFEAFFE5CF53
:10160000E9FFE5CFDAFF1100D8CFE4FFE0CFE4FF38
:10161000E46EDACFE4FFE2CFDAFFE652E552E5CF3F
:10162000DAFFE550E5CFE0FFE5CFD8FF100066D840
:10163000926A936A956A966A8068816A836A846806
:10164000948E938C9684948094829484ECEC10F025
:101650000001620E6E6F2A0E6F6F706B716B750EEC
:101660007E6F7F6B806B816B320E826F836B846BBE
:10167000856B7EC004F07FC005F080C006F081C09D
:1016800007F0640E096E0A6A0B6A0C6ACFEC19F057
:10169000005000018225726F01508321736F025048
:1016A0008421746F03508521756F6EC0E6FF6FC093
:1016B000E6FF70C0E6FF71C0E6FFA9D9E552E5522A
:1016C000E552E55272C0E6FF73C0E6FF74C0E6FF64
:1016D00075C0E6FF3DDBE552E552E552E552200ECE
:1016E000F26E840EF16ED08ED76AD66AC70ED56EB2
:1016F000F28E4EEC11F00ED8FCD712000F0EC11274
:10170000F8EC10F084EF0BF00001D06BD16BD26BD2
:10171000D36B1200D9CFE6FFE1CFD9FF040EE1264B
:10172000200E0001965D03E36D50020B01E034D101
:101730000001D051D11102E1000E08D0D0C0E9FF64
:10174000D1C0EAFFEF50800B01E0010E000901E07B
:1017500023D1D46B04013651730A01E1BBD0F00AE6
:1017600051E06D0A01E005D1EE0E766F72C07AF09D
:1017700073C07BF074C07CF075C07DF0DE6ADD6AFA
:10178000DECF10F0DDCF11F0D890115004E6060E38
:10179000105C000E11580FE2DECFE9FFDDCFEAFF4B
:1017A000660EE926000EEA22800EEF6EDF2A010E99
:1017B00001E3DB2AE5D70001D251D31102E1000E8B
:1017C00008D0D2C0E9FFD3C0EAFFEF50800B01E0A0
:1017D000010E000913E1400EE66E760EE66E040E71
:1017E000E66E010EE66EE66E1AEC18F0106E050E4F
:1017F000E15E1050F3CFD2F0F4CFD3F00001010E30
:10180000CE6FB7D00001C80518E10401830E766FD2
:10181000010E776F61C078F462C079F463C07AF426
:1018200064C07BF467C07CF468C07DF469C07EF45A
:101830006AC07FF40001C86B29D00401830E766F63
:10184000010EF36E020EF3CFDBFF030EDB6A020E16
:10185000DBCF10F0030EDBCF11F0D890115004E66F
:10186000400E105C000E115811E2020EDBCFE9FFB2
:10187000030EDBCFEAFF760EE926040EEA22EF6ABA
:10188000020EDB2A030E01E3DB2AE1D70001D2516D
:10189000D31102E1000E08D0D2C0E9FFD3C0EAFFA5
:1018A000EF50800B01E0010E000913E1400EE66EDF
:1018B000760EE66E040EE66E010EE66EE66E1AEC2D
:1018C00018F0106E050EE15E1050F3CFD2F0F4CF99
:1018D000D3F04FD00001C90508E10401730E766F03
:1018E000010E776F0001C96B20D00401730E766F73
:1018F000010EDE6EDD6ADECF10F0DDCF11F0D89084
:10190000115004E6400E105C000E11580EE2DECFBE
:10191000E9FFDDCFEAFF760EE926040EEA22EF6A40
:10192000DF2A010E01E3DB2AE6D70001D251D311F1
:1019300002E1000E08D0D2C0E9FFD3C0EAFFEF50A9
:10194000800B01E0010E000913E1400EE66E760EF9
:10195000E66E040EE66E010EE66EE66E1AEC18F008
:10196000106E050EE15E1050F3CFD2F0F4CFD3F03D
:1019700000D0400EE66E360EE66E040EE66EE66AA7
:10198000010EE66E1AEC18F0106E050EE15E1050B6
:10199000F3CFD0F0F4CFD1F0040EE15C02E2E16AC3
:1019A000E552E16EE552E7CFD9FF120012001200B6
:1019B00012001200AFEF18F012001E0EE66E010EBC
:1019C000E66E6FEC17F0E552E552400EE66E360E0D
:1019D000E66E040EE66EE66A010EE66E1AEC18F08C
:1019E000106E050EE15E1050F3CFD0F0F4CFD1F0C1
:1019F00012006D840001080E946F070E956F940716
:101A0000000E955B94519511FAE16D941200D9CFB7
:101A1000E6FFE1CFD9FF180EE126D950FB0FE96EA2
:101A2000FF0EDA20EA6ED8809F0EEE54860EEE543A
:101A3000010EEE54000EEE5411E29F0EF36EFB0EFB
:101A4000F3CFDBFF860EF36EFC0EF3CFDBFF010E50
:101A5000F36EFD0EF3CFDBFFFE0EDB6AD950FB0FFA
:101A6000E96EFF0EDA20EA6E140EEECFDBFF150EE4
:101A7000EECFDBFF160EEECFDBFF170EEECFDBFF58
:101A8000140EDBCF04F0150EDBCF05F0160EDBCF06
:101A900006F0170EDBCF07F0100E096E270E0A6E48
:101AA0000B6A0C6A07EC1AF004C0DEFF05C0DEFF0B
:101AB00006C0DEFF07C0DDFFDD52DD52D9CFE9FFF2
:101AC000DACFEAFFEECF10F0EECF11F0EECF12F04A
:101AD000EFCF13F0100E096E270E0A6E0B6A0C6A18
:101AE00010C004F011C005F012C006F013C007F0DA
:101AF000CFEC19F000C010F001C011F002C012F0DC
:101B000003C013F0D950140FE96EDACFEAFF10507A
:101B1000EE5E1150EE5A1250EE5A1350EE5A140E59
:101B2000DBCF04F0150EDBCF05F0160EDBCF06F091
:101B3000170EDBCF07F0E80E096E030E0A6E0B6A74
:101B40000C6A07EC1AF0040E04C0DBFF050E05C09A
:101B5000DBFF060E06C0DBFF070E07C0DBFF040E2F
:101B6000DBCF10F0050EDBCF11F0060EDBCF12F04D
:101B7000070EDBCF13F0E80E096E030E0A6E0B6A38
:101B80000C6A10C004F011C005F012C006F013C0BA
:101B900007F0CFEC19F000C010F001C011F002C046
:101BA00012F003C013F0D950140FE96EDACFEAFF38
:101BB0001050EE5E1150EE5A1250EE5A1350EE5A7B
:101BC000140EDBCF04F0150EDBCF05F0160EDBCFC5
:101BD00006F0170EDBCF07F0640E096E0A6A0B6A77
:101BE0000C6A07EC1AF0080E04C0DBFF090E05C0F2
:101BF000DBFF0A0E06C0DBFF0B0E07C0DBFF080E83
:101C0000DBCF10F0090EDBCF11F00A0EDBCF12F0A4
:101C10000B0EDBCF13F0640E096E0A6A0B6A0C6AB6
:101C200010C004F011C005F012C006F013C007F098
:101C3000CFEC19F000C010F001C011F002C012F09A
:101C400003C013F0D950140FE96EDACFEAFF105039
:101C5000EE5E1150EE5A1250EE5A1350EE5A140E18
:101C6000DBCF04F0150EDBCF05F0160EDBCF06F050
:101C7000170EDBCF07F00A0E096E0A6A0B6A0C6AB0
:101C800007EC1AF00C0E04C0DBFF0D0E05C0DBFFE5
:101C90000E0E06C0DBFF0F0E07C0DBFF0C0EDBCF06
:101CA00010F00D0EDBCF11F00E0EDBCF12F00F0E89
:101CB000DBCF13F00A0E096E0A6A0B6A0C6A10C0B9
:101CC00004F011C005F012C006F013C007F0CFEC0D
:101CD00019F000C010F001C011F002C012F003C0F2
:101CE00013F0D950140FE96EDACFEAFF1050EE5E10
:101CF0001150EE5A1250EE5A1350EE5AD950140F9A
:101D0000E96EDACFEAFF100EEECFDBFF110EEECF59
:101D1000DBFF120EEECFDBFF130EEECFDBFF000E6C
:101D2000DFCF60F0040EDBCF61F0080EDBCF62F096
:101D30000C0EDBCF63F0100EDBCF64F0180EE15C0D
:101D400002E2E16AE552E16EE552E7CFD9FF120007
:101D5000D9CFE6FFE1CFD9FF180EE126D950FB0F0E
:101D6000E96EFF0EDA20EA6ED8809F0EEE54860EE2
:101D7000EE54010EEE54000EEE5411E29F0EF36E7F
:101D8000FB0EF3CFDBFF860EF36EFC0EF3CFDBFF13
:101D9000010EF36EFD0EF3CFDBFFFE0EDB6AD950B2
:101DA000FB0FE96EFF0EDA20EA6E140EEECFDBFFBA
:101DB000150EEECFDBFF160EEECFDBFF170EEECFCC
:101DC000DBFF140EDBCF04F0150EDBCF05F0160E93
:101DD000DBCF06F0170EDBCF07F0100E096E270ED3
:101DE0000A6E0B6A0C6A07EC1AF004C0DEFF05C02D
:101DF000DEFF06C0DEFF07C0DDFFDD52DD52D9CFBA
:101E0000E9FFDACFEAFFEECF10F0EECF11F0EECF20
:101E100012F0EFCF13F0100E096E270E0A6E0B6A48
:101E20000C6A10C004F011C005F012C006F013C017
:101E300007F0CFEC19F000C010F001C011F002C0A3
:101E400012F003C013F0D950140FE96EDACFEAFF95
:101E50001050EE5E1150EE5A1250EE5A1350EE5AD8
:101E6000140EDBCF04F0150EDBCF05F0160EDBCF22
:101E700006F0170EDBCF07F0E80E096E030E0A6EB0
:101E80000B6A0C6A07EC1AF0040E04C0DBFF050EA7
:101E900005C0DBFF060E06C0DBFF070E07C0DBFF39
:101EA000040EDBCF10F0050EDBCF11F0060EDBCFFA
:101EB00012F0070EDBCF13F0E80E096E030E0A6E68
:101EC0000B6A0C6A10C004F011C005F012C006F0D5
:101ED00013C007F0CFEC19F000C010F001C011F0F2
:101EE00002C012F003C013F0D950140FE96EDACF1C
:101EF000EAFF1050EE5E1150EE5A1250EE5A135097
:101F0000EE5A140EDBCF04F0150EDBCF05F0160EE3
:101F1000DBCF06F0170EDBCF07F0640E096E0A6AFE
:101F20000B6A0C6A07EC1AF0080E04C0DBFF090EFE
:101F300005C0DBFF0A0E06C0DBFF0B0E07C0DBFF90
:101F4000080EDBCF10F0090EDBCF11F00A0EDBCF4D
:101F500012F00B0EDBCF13F0640E096E0A6A0B6AE7
:101F60000C6A10C004F011C005F012C006F013C0D6
:101F700007F0CFEC19F000C010F001C011F002C062
:101F800012F003C013F0D950140FE96EDACFEAFF54
:101F90001050EE5E1150EE5A1250EE5A1350EE5A97
:101FA000140EDBCF04F0150EDBCF05F0160EDBCFE1
:101FB00006F0170EDBCF07F00A0E096E0A6A0B6AED
:101FC0000C6A07EC1AF00C0E04C0DBFF0D0E05C006
:101FD000DBFF0E0E06C0DBFF0F0E07C0DBFF0C0E93
:101FE000DBCF10F00D0EDBCF11F00E0EDBCF12F0B9
:101FF0000F0EDBCF13F00A0E096E0A6A0B6A0C6A29
:1020000010C004F011C005F012C006F013C007F0B4
:10201000CFEC19F000C010F001C011F002C012F0B6
:1020200003C013F0D950140FE96EDACFEAFF105055
:10203000EE5E1150EE5A1250EE5A1350EE5AD9502D
:10204000140FE96EDACFEAFF100EEECFDBFF110EB0
:10205000EECFDBFF120EEECFDBFF130EEECFDBFF7A
:10206000000EDFCF66F0040EDBCF67F0080EDBCF8B
:1020700068F00C0EDBCF69F0100EDBCF6AF0180EA3
:10208000E15C02E2E16AE552E16EE552E7CFD9FF99
:102090001200D9CFE6FFE1CFD9FF040EE12672C0CE
:1020A000DFFF010E73C0DBFF020E74C0DBFF030E07
:1020B00075C0DBFF6EC072F06FC073F070C074F05B
:1020C00071C075F0DFCF6EF0010EDBCF6FF0020E46
:1020D000DBCF70F0030EDBCF71F06EC0E6FF6FC098
:1020E000E6FF70C0E6FF71C0E6FF91DCE552E55205
:1020F000E552E55272C07EF073C07FF074C080F08C
:1021000075C081F0640E096E0A6A0B6A0C6A7EC0A3
:1021100004F07FC005F080C006F081C007F007EC36
:102120001AF004C07EF005C07FF006C080F007C042
:1021300081F07EC004F07FC005F080C006F081C051
:1021400007F0640E096E0A6A0B6A0C6ACFEC19F08C
:1021500000500001725F0150735B0250745B0350CA
:10216000755B72C082F073C083F074C084F075C078
:1021700085F07EC004F07FC005F080C006F081C00D
:1021800007F0640E096E0A6A0B6A0C6ACFEC19F04C
:10219000005000018225726F01508321736F02503D
:1021A0008421746F03508521756F72C0E6FF73C080
:1021B000E6FF74C0E6FF75C0E6FFCADDE552E552F2
:1021C000E552E552040EE15C02E2E16AE552E16E9D
:1021D000E552E7CFD9FF12008450040B01E0010E55
:1021E00000018E6F8250020B01E0010E8F6F120012
:1021F000D9CFE6FFE1CFD9FFE6526A6A686A9F0E3F
:102200006B6EFB0E696E6D8C6D9C6E6A000EE66ED9
:10221000E66AE66A710EE66E0F0EE66E2BEC1AF0B9
:10222000106E050EE15E1050DF6ADF50106E116A0D
:10223000080E105C000E115810E2DF50040DF3CFB1
:10224000E9FFF4CFEAFF000EE926040EEA22EE6A67
:10225000EE6AEE6AEE6ADF2AE8D7160E706E68A69E
:102260000CD0030EE66E680EE66E0F0EE66E93EC73
:1022700018F0E552E552E552F2D70001A96BAE6BBA
:10228000AF6BB06B6D98080EA16F040EA26F976BC9
:10229000966BE552E552E7CFD9FF1200D9CFE6FFA2
:1022A000E1CFD9FFE6520001965111E105D06D6AE8
:1022B000696A0001966B7BD06D6A696A6DB602D05F
:1022C0006D86FCD70001010E966F160E6F6E960597
:1022D00008E16DBA06D0686A696A69806988020E89
:1022E000966F6850040B04E06950040B01E096D827
:1022F0006DB25DD06850010B11E06950010B0EE02A
:1023000077DF0001040E966F0401200E026F040EA9
:10231000036F080E016F006B8C0E00136850100BDA
:1023200004E06950100B01E06AD86850400B10E0DF
:102330006950400B0DE0D8EC0CF0060EE66E680E0E
:10234000E66E0F0EE66E93EC18F0E552E552E5529C
:102350006850200B04E06950200B01E02DD8685034
:10236000020B06E06950020B03E0D9EC0CF06A6A3C
:10237000040E0001965D01E21AD069A618D0DF6A4A
:10238000040EDF5C14E268A60FD06CCFB6F0030E2B
:10239000E66E680EE66E0F0EE66E93EC18F0E552F0
:1023A000E552E5524ED801D002D0DF2AE9D7E552F6
:1023B000E552E7CFD9FF120070A015D099C0E9FF10
:1023C0009AC0EAFFEF5080080DE1A1C0E9FFA2C06A
:1023D000EAFFEF50840806E199C0E9FF9AC0EAFFDE
:1023E0008C0EEF6E7090050EE66E680EE66E0F0EA8
:1023F000E66E93EC18F0E552E552E552120069845E
:10240000040EE66E680EE66E0F0EE66E93EC18F0A4
:10241000E552E552E5526D82D6EF0CF06D92D7ECA5
:102420000CF0699468A40CD0020EE66E680EE66E9D
:102430000F0EE66E93EC18F0E552E552E552F2D736
:102440001200FD0E0001B61520E17E0EB615E84023
:102450007F0B040DF3CF99F0F4CF9AF0000E99277B
:10246000040E9A2399C09BF09AC09CF09B7599C06A
:10247000E9FF9AC0EAFFEF503C0BE842E8420D0842
:1024800002E109D801D01ED805D0FD0EB61504080A
:1024900001E120D81200A1C0E9FFA2C0EAFFEF507D
:1024A000800B05E0A1C0E9FFA2C0EAFFEF6A0001CE
:1024B000A56BA66BAA6BAB6BA96BF7D8DAEC0CF02B
:1024C000EAEF14F0020E0001A65D02E1E0DB01D0AC
:1024D0004ED81200D9CFE6FFE1CFD9FFE652A1C016
:1024E000E9FFA2C0EAFFEF50400B01E0010EDF6EF2
:1024F0000001A175080E965D0AE122C46EFF6E50C0
:10250000000803E2100E966F02D0040E966FA60527
:1025100028E1A1C0E9FFA2C0EAFF020EE926000EF1
:10252000EA22280EEE6E040EED6E26DB020E00018E
:10253000A55D07E1A1C0E9FFA2C0EAFF840EEF6E2E
:102540000FD0DF5007E1A1C0E9FFA2C0EAFFC80E2B
:10255000EF6E06D0A1C0E9FFA2C0EAFF880EEF6EC1
:1025600001D005D8E552E552E7CFD9FF1200D9CF07
:10257000E6FFE1CFD9FF030EE126020E0001A65DC2
:102580004AE16D50100B47E099C0E9FF9AC0EAFF9D
:10259000EE52EF50106E116A080E101801E1115042
:1025A0003AE199C0E9FF9AC0EAFFEF503C0BE842DC
:1025B000E8420D0830E19BC0E9FF9CC0EAFFEF5004
:1025C000800B29E19BC0E9FF9CC0EAFF020EE926CF
:1025D000000EEA22200EEE6E040EED6EDF6ADF5072
:1025E000106E116A080E105C000E115813E2DF50D5
:1025F000EA6A280FE96E040EEA22EF50E66EDF5019
:10260000EA6A200FE96E040EEA22E552E750EF6E07
:10261000DF2AE5D731D0A66B9BC0E9FF9CC0EAFF5B
:10262000EE52080EEF6E9BC0E9FF9CC0EAFF020E5F
:10263000E926000EEA22200EEE6E040EED6E9BC01F
:10264000E9FF9CC0EAFF8C0EEF6EA1C0E9FFA2C0BB
:10265000EAFFEF6A040EA119106EA2C011F0010E7C
:1026600010C0DBFF020E11C0DBFF010EDBCFE9FF64
:10267000020EDBCFEAFFEF6A0001AEAF0CD0B15122
:10268000B21107E005D0B2C0FAFF0001B151F96EF6
:10269000FADF0001AE9F030EE15C02E2E16AE5525F
:1026A000E16EE552E7CFD9FF120004012051600B23
:1026B000E842E842E842E842E842000901E04CD042
:1026C00021510C0A48E00B0A43E00C0A35E0010AEC
:1026D00026E00B0A22E0020A20E0030A1CE0080AB6
:1026E00010E0010A0CE00F0A08E0030A01E033D011
:1026F0000001A98F080E966F2FD0BCD82DD058DBC3
:102700002BD00001970EA76F000EA86FA981010EB4
:10271000AA6FA98F21D002D91FD01FD81DD0245154
:102720000001A76FA86B980EA727000EA823A98108
:10273000010EAA6FA98F10D00001A98F04012451A6
:10274000EA6A980FE96E000EEA2222C4EFFF04D075
:10275000DCEC0CF001D000D01200D9CFE6FFE1CFC5
:10276000D9FF050EE1260401220510E120511F0BBF
:1027700000090CE10001A98F030E0401215D04E1B1
:102780000001010EB56F02D00001B56B04012251AA
:1027900067E120511F0B020863E124510F0B000970
:1027A0005FE00001A98F040EDB6A020EF36E040ED7
:1027B000DBCFF4FFF350F45C53E2000EDE6E040E48
:1027C000DD6E040EDBCFE6FF04012451800B01E037
:1027D000010EE824126E24510F0B040DF350122445
:1027E000E552E724040DF3CF10F0F4CF11F0D9CF68
:1027F000E9FFDACFEAFF1050EE261150ED22030E6A
:10280000215D07E1DECFE9FFDDCFEAFF840EEF6E49
:1028100024D024510F0B116A700F106E0F0E11226D
:10282000020E10C0DBFF030E11C0DBFF020EDBCF78
:10283000E9FF030EDBCFEAFFEE90ED5224AF07D0A5
:10284000DECFE9FFDDCFEAFF400EEF6E06D0DECF30
:10285000E9FFDDCFEAFFC80EEF6E040EDB2AA5D735
:10286000050EE15C02E2E16AE552E16EE552E7CF76
:10287000D9FF1200800E0401205D4FE10001C00E5F
:10288000A96F04012351030A2EE0010A0EE0030A96
:1028900003E00001A96B41D000014C0EA76F320E7E
:1028A000A86F120EAA6FAB6B38D02251F66EF76A82
:1028B000D890F636F736F80EF626320EF7220900D3
:1028C000F5CFA7F00A00F5CFA8F0020E0001F76AD5
:1028D000A725F66EA851F7220900F5CFAAF00A0045
:1028E000F5CFABF01AD02251F66EF76AD890F636D3
:1028F000F736FA0EF626320EF7220900F5CFA7F0CA
:102900000A00F5CFA8F0A7C0F6FFA8C0F7FF08009F
:10291000F5500001AA6FAB6B00D01200D9CFE6FFD3
:10292000E1CFD9FF020EE1260401286B296B20516B
:102930001F0B020A12E0030A0DE0010A01E036D083
:102940000001A98F040128810001B50502E10401FD
:1029500028832CD00001A98F29D00001A98F000E57
:10296000DE6E040EDD6E04012451800B01E0010EC9
:10297000E824126E24510F0B040DF3501224040DA1
:10298000F3CF10F0F4CF11F0D9CFE9FFDACFEAFF9F
:102990001050EE261150ED22DECFE9FFDDCFEAFF29
:1029A000EF50040B02E0010E286F00D00001A9AF28
:1029B00007D0280EA76F040EA86FA981020EAA6F78
:1029C000020EE15C02E2E16AE552E16EE552E7CF18
:1029D000D9FF12006D980001A9BF4AD0AEAF28D030
:1029E000020EA66FA1C0E9FFA2C0EAFFEE52EF6A95
:1029F000A1C0E9FFA2C0EAFFC80EEF6E9BC0E9FFCD
:102A00009CC0EAFFEE52080EEF6E9BC0E9FF9CC02F
:102A1000EAFF020EE926000EEA22280EEE6E040EF0
:102A2000ED6E9BC0E9FF9CC0EAFFC80EEF6E1FD0A1
:102A30009BC0E9FF9CC0EAFFEE52080EEF6E9BC000
:102A4000E9FF9CC0EAFF020EE926000EEA22200EF2
:102A5000EE6E040EED6E9BC0E9FF9CC0EAFF8C0E8B
:102A6000EF6EA1C0E9FFA2C0EAFF840EEF6E83D033
:102A7000AEBF81D0040120AF56D00001AA5104019D
:102A8000265D0001AB510401275904E226C4AAF0D7
:102A900027C4ABF071D80001010EA66F9BC0E9FFFF
:102AA0009CC0EAFFEE52080EEF6E9BC0E9FF9CC08F
:102AB000EAFF020EE926000EEA22200EEE6E040E58
:102AC000ED6E9BC0E9FF9CC0EAFF800EEF6E99C0DF
:102AD000E9FF9AC0EAFFEE52080EEF6E99C0E9FFD7
:102AE0009AC0EAFF020EE926000EEA22200EEE6EE0
:102AF000040EED6E99C0E9FF9AC0EAFF800EEF6EFA
:102B0000A1C0E9FFA2C0EAFF020EE926000EEA22F8
:102B1000280EEE6E040EED6EA1C0E9FFA2C0EAFF22
:102B2000C80EEF6E28D00001020EA66FA1C0E9FF0B
:102B3000A2C0EAFFEE52EF6AA1C0E9FFA2C0EAFF1D
:102B4000C80EEF6E9BC0E9FF9CC0EAFFEE52080E74
:102B5000EF6E9BC0E9FF9CC0EAFF020EE926000E63
:102B6000EA22280EEE6E040EED6E9BC0E9FF9CC0BB
:102B7000EAFFC80EEF6E1200D9CFE6FFE1CFD9FF12
:102B8000020EE1260001080EAA5D000EAB590EE20E
:102B9000AAC0DEFFABC0DDFFA55103E1010EA56FAA
:102BA00004D0A50502E1020EA56F03D0080EDE6E6B
:102BB000DD6AA1C0E9FFA2C0EAFFEF92A1C0E9FF70
:102BC000A2C0EAFFEF90A1C0E9FFA2C0EAFF010E98
:102BD000DB50EF12A1C0E9FFA2C0EAFFEE52DFCF47
:102BE000EFFF000EDB50AA5F010EDB50AB5B280E3F
:102BF000B36F040EB46FA9B121D0D9CFE9FFDACFFA
:102C0000EAFFEE50ED1019E0A7C0F6FFA8C0F7FFED
:102C1000A72B000EA8230800F550E66EB3C0E9FF0D
:102C2000B4C0EAFFB32B000EB423E552E750EF6EB9
:102C3000DF06010E01E2DB06E0D71FD0D9CFE9FFA6
:102C4000DACFEAFFEE50ED1018E0A7C0E9FFA8C008
:102C5000EAFFA72B000EA823EF50E66EB3C0E9FFF2
:102C6000B4C0EAFFB32B000EB423E552E750EF6E79
:102C7000DF06010E01E2DB06E1D7020EE15C02E2B3
:102C8000E16AE552E16EE552E7CFD9FF1200D9CFF4
:102C9000E6FFE1CFD9FF020EE12699C0E9FF9AC015
:102CA000EAFFEE52EFCFDFFFDFCF10F01050000150
:102CB000AF5D000EB05903E2AFC0DFFF09D0DF50B7
:102CC000106E116A1050AF5DAF6F1150B059B06FF8
:102CD000010EDB6ADF50F36E010EDBCFF4FFF35021
:102CE000F45C16E2010EDB50EA6A280FE96E040E6E
:102CF000EA22EF50E66EACC0E9FFADC0EAFFAC2BB4
:102D0000000EAD23E552E750EF6E010EDB2AE2D74D
:102D1000000ED880AF55000EB05528E29BC0E9FFE9
:102D20009CC0EAFFEE52080EEF6E9BC0E9FF9CC00C
:102D3000EAFF020EE926000EEA22280EEE6E040ECD
:102D4000ED6E99C0E9FF9AC0EAFFEF50400B07E132
:102D50009BC0E9FF9CC0EAFFC80EEF6E06D09BC087
:102D6000E9FF9CC0EAFF880EEF6E18D09BC0E9FF18
:102D70009CC0EAFF020EE926000EEA22200EEE6E4B
:102D8000040EED6EB151B21107E005D0B2C0FAFFEA
:102D90000001B151F96EFADF0001AE9F020EE15C55
:102DA00002E2E16AE552E16EE552E7CFD9FF120097
:102DB0000001A98F000EE66EE66AE66A710EE66E05
:102DC0000F0EE66E2BEC1AF0106E050EE15E105041
:102DD000010EE66EE66AE66A980EE66E000EE66E94
:102DE0002BEC1AF0106E050EE15E105022C497F025
:102DF0000401225104E10001100E966F05D000017C
:102E0000200E966FDDEC0CF01200D9CFE6FFE1CF7B
:102E1000D9FF020EE126000EDE6E040EDD6EFD0E01
:102E2000DB50E824126EFE0EDB50040DF35012242A
:102E3000040DF350106E116A020E0F0B05E0D890CE
:102E400011321032E806FBE1D89010361136D890D6
:102E500010361136D9CFE9FFDACFEAFF1050EE264F
:102E60001150ED22DECFE9FFDDCFEAFFEF9EFD0E30
:102E7000DB500FE1FE0EEA6ADB34FE0BEA36E96E48
:102E80009D0EE926000EEA22DECFEEFFDDCFEDFF3C
:102E90000ED0FE0EEA6ADB34FE0BEA36E96EA10EB6
:102EA000E926000EEA22DECFEEFFDDCFEDFFDECF1A
:102EB000E9FFDDCFEAFFEF9CDECFE9FFDDCFEAFFE0
:102EC000040EE926000EEA22EF8C020EE15C02E21B
:102ED000E16AE552E16EE552E7CFD9FF1200D9CFA2
:102EE000E6FFE1CFD9FF020EE126FE0EDB50116AAC
:102EF000700F106E0F0E112210C0DEFF11C0DDFF2B
:102F0000FD0EDB50E66EDECFE9FFDDCFEAFFE552D6
:102F1000E750EE6EED6AFD0EDBA407D0E66AFE0E0A
:102F2000DBCFE6FF72DFE552E552FD0EDBA208D0F3
:102F3000010EE66EFE0EDBCFE6FF67DFE552E552DF
:102F4000020EE15C02E2E16AE552E16EE552E7CF92
:102F5000D9FF1200D9CFE6FFE1CFD9FF020EE1265B
:102F6000FE0EDB5020E19BC0E9FF9CC0EAFFEE5261
:102F7000080EEF6E9BC0E9FF9CC0EAFF020EE92637
:102F8000000EEA22200EEE6E040EED6E9BC0E9FFED
:102F90009CC0EAFF8C0EEF6EA1C0E9FFA2C0EAFF61
:102FA000840EEF6E3DD0FD0EDB50E824126EFE0E57
:102FB000DB50040DF3501224040DF3CF10F0F4CFC6
:102FC00011F0000E1026040E112210C0DEFF11C0F9
:102FD000DDFF840E106EDECFE9FFDDCFEAFF10507B
:102FE000EF12FD0EDB50E824126EFE0EDB50040DD6
:102FF000F3501224010F040DF3CF10F0F4CF11F0B1
:10300000000E1026040E112210C0DEFF11C0DDFFDD
:10301000840E106EDECFE9FFDDCFEAFF1050EF1215
:10302000020EE15C02E2E16AE552E16EE552E7CFB1
:10303000D9FF1200D9CFE6FFE1CFD9FF020EE1267A
:10304000FD0EDB500FE0FE0EEA6ADB34FE0BEA36C3
:10305000E96EA10EE926000EEA22EECFDEFFEDCFEB
:10306000DDFF0ED0FE0EEA6ADB34FE0BEA36E96EB7
:103070009D0EE926000EEA22EECFDEFFEDCFDDFF4A
:10308000DECFE9FFDDCFEAFF020EE926000EEA22DD
:10309000FB0EDBCFEEFFFC0EDBCFEDFFDECFE9FF5B
:1030A000DDCFEAFFEE52FA0EDBCFEFFF400E106EDF
:1030B000DECFE9FFDDCFEAFF1050EF16880E106E6D
:1030C000DECFE9FFDDCFEAFF1050EF12FD0EDB503F
:1030D0000CE0FE0EEA6ADB34FE0BEA36E96EA10E66
:1030E000E926000EEA22EF740BD0FE0EEA6ADB340A
:1030F000FE0BEA36E96E9D0EE926000EEA22EF7419
:10310000DECF10F0DDCF11F010C0F3FF11C0F4FFDF
:10311000020EE15C03E200D0E16AE552E16EE552A5
:10312000E7CFD9FF1200D9CFE6FFE1CFD9FF010EDB
:10313000F36EFC0EDB5004E0D890F336E806FCE1B9
:10314000F350E81C106EFD0EDBCFE9FFFE0EDBCF67
:0E315000EAFF1050EF16E552E7CFD9FF12004C
:02315E0004016A
:1031600020511F0B010801E06DD0245101E06AD00D
:10317000060E215D28E12351230A21E0010A11E016
:10318000030A01E020D0000197050AE10001700E5A
:10319000A76F320EA86F090EAA6FAB6BC00EA96F96
:1031A00012D0000197050AE10001DB0EA76F320E75
:1031B000A86F1D0EAA6FAB6BC00EA96F04D00001E3
:1031C000800EA96F00D004012051600BE842E84254
:1031D000E842E842E842010801E034D021510B0AFC
:1031E0002BE0080A1EE0090A16E0080A09E00B0AAB
:1031F00005E0080A01E026D026D824D025D822D020
:103200000001DF0EA76F000EA86F010EAA6FAB6B57
:10321000C10EA96F17D00001800EA96F23C4DFF083
:1032200011D00001E00EA76F000EA86F010EAA6F6B
:10323000AB6B810EA96F06D00001800EA96F22C46E
:0C324000E0F000D012001200120012009A
:04324C001201000269
:1032500000000008D016210402000102000109024A
:103260002900010100C0320904000002030000002F
:10327000092111010001221D000705810340000101
:103280000705010340000104030904300346006CF4
:103290000069006700680074002000440065006356
:1032A000006B002000530069006D0075006C006128
:1032B00000740069006F006E007300200346004434
:1032C000005300490020004E004100560020004DF0
:1032D000006F00640075006C0065000600FF0901C6
:1032E000A10119012940150026FF007508954081AC
:1032F00002190129409102C05E3287328B32BB3203
:103300002A0EF66E100EF76E000EF86E0001090020
:10331000F550DA6F0900F550DB6F03E1DA6701D091
:103320003DD00900F550D56F0900F550D66F090062
:10333000F550D76F09000900F550E96E0900F55006
:10334000EA6E090009000900F550D86F0900F55030
:10335000D96F09000900F6CFDCF0F7CFDDF0F8CF28
:10336000DEF0D5C0F6FFD6C0F7FFD7C0F8FF0001EA
:10337000D85302E1D95307E00900F550EE6ED807A3
:10338000F8E2D907F9D7DCC0F6FFDDC0F7FFDEC0F1
:0E339000F8FF0001DA07000EDB5BBFD712006A
:02339E000450D9
:1033A0000902F3CF00F0F4CF01F00A02F350012636
:1033B000000EF420026E04500B02F3500226000EA1
:1033C000F420036E04500C02F3500326055009024A
:1033D000F3500126F4500222000E032205500A0287
:1033E000F3500226F450032205500B02F35003263B
:1033F00006500902F3500226F450032206500A0236
:0E340000F350032607500902F3500326120072
:02340E00036A4F
:10341000026A016A006A200EE76ED890043605360B
:103420000636073600360136023603360950005C90
:103430000A5001580B5002580C50035809E3095028
:10344000005E0A50015A0B50025A0C50035A042ACB
:06345000E72EE4D7120094
:0A345600FE0EE3CFE9FFFF0EE3CF07
:10346000EAFFE9CFF3FFEACFF4FFFB0EE35003E1FD
:10347000FC0EE35009E0FB0EE30602E2FC0EE3065D
:0A348000FD0EE350EE6EF1D71200CE
:06348A00FF0EE350156E79
:103490001B0E00D001D0200EE76EE72EFED7152EB2
:0634A000FAD700D0120073
:0A34A60013EE00F023EE00F0F86AC8
:0E34B0000F9C80EC19F017EC0BF0FDD712000A
:0234BE00BD301F
:1034C0009EBA33AB2FB0BFB33200000000FF010043
:0834D0000000000000000001F3
:020000040030CA
:0100000026D9
:010001000EF0
:010002003FBE
:010003001EDE
:010005008179
:010006008178
:010008000FE8
:01000900C036
:01000A000FE6
:01000B00E014
:01000C000FE4
:01000D0040B2
:00000001FF
