:020000040000FA
:06000000D2EF19F012001E
:0600080004EF08F01200F5
:060018000CEF08F01200DD
:06100000D2EF19F012000E
:061008001CEF08F01200CD
:06101800E3EF0AF01200F4
:06102A000100EC330000A0
:08103000C100000015000000E2
:08103800DACFE4FFE2CFDAFF9A
:10104000E9CFE4FFEACFE4FFF6CFE4FFF7CFE4FF18
:10105000F5CFE4FFF3CFE4FFF4CFE4FFFACFE4FFF2
:1010600000EE00F0100EE80403E3EECFE4FFFBD740
:1010700000EE10F0040EE80403E3EECFE4FFFBD72C
:10108000E652F2A47CD28450040B01E0010E000170
:10109000945D72E039EC10F08450040B02E0000E15
:1010A00001D0010E146E8250040B01E0010E1418E1
:1010B00010E000017C07000E7D5B7E5B7F5B800E95
:1010C0007F1506E04F0E7C6F460E7D6F7E6B7F6B4B
:1010D00018D000017C2B000E7D237E237F237F35DB
:1010E000000E7F1909E6D8804F0E7C55460E7D55BF
:1010F000000E7E55000E7F5504E27C6B7D6B7E6B8F
:101100007F6B7CC084F07DC085F07EC086F07FC0A0
:1011100087F00A0E0B6E0C6A0D6A0E6A84C006F028
:1011200085C007F086C008F087C009F060EC19F0B0
:1011300006C084F007C085F008C086F009C087F0BB
:1011400084C006F085C007F086C008F087C009F0AB
:101150000A0E0B6E0C6A0D6A0E6A28EC19F002502A
:1011600000017C5D886F03507D59896F04507E5962
:101170008A6F05507F598B6F8250020B01E0010E80
:10118000955D4AE039EC10F08250020B01E0010E4F
:10119000146E8250010B14180FE000018407000E3A
:1011A000855B865B875B800E871505E0070E846F85
:1011B000856F866B876B14D00001842B000E85230E
:1011C00086238723080E841906E1070E851903E19B
:1011D000865101E1875104E1846B856B866B876BD7
:1011E00084C006F085C007F086C008F087C009F00B
:1011F0000A0E0B6E0C6A0D6A0E6A28EC19F002508A
:10120000000188257C6F035089217D6F04508A215D
:101210007E6F05508B217F6F7CC0E6FF7DC0E6FFAF
:101220007EC0E6FF7FC0E6FF61EC0EF0E552E552BE
:10123000E552E552010E836E816A00016A51EA6A45
:10124000C10FE96E000EEA22EF503F0B806E060ED2
:10125000146E6A51EA6AC10FE96E000EEA22EF507D
:1012600014C0E7FFE75204E0E8427F0BE706FCE129
:10127000030B846E320EE66EE0EC19F0E552020EBE
:10128000836E816A00016B51EA6AC10FE96E000E3C
:10129000EA22EF503F0B806E060E146E6B51EA6A25
:1012A000C10FE96E000EEA22EF5014C0E7FFE752CB
:1012B00004E0E8427F0BE706FCE1030B846E320E8C
:1012C000E66EE0EC19F0E552040E836E816A0001CF
:1012D0006C51EA6AC10FE96E000EEA22EF503F0B33
:1012E000806E060E146E6C51EA6AC10FE96E000E34
:1012F000EA22EF5014C0E7FFE75204E0E8427F0B18
:10130000E706FCE1030B846E320EE66EE0EC19F0AA
:10131000E552080E836E816A00016D51EA6AC10FC1
:10132000E96E000EEA22EF503F0B806E060E146E3F
:101330006D51EA6AC10FE96E000EEA22EF5014C047
:10134000E7FFE75204E0E8427F0BE706FCE1010912
:10135000846E320EE66EE0EC19F0E552100E836EEC
:10136000816A00016E51EA6AC10FE96E000EEA223D
:10137000EF503F0B806E060E146E6E51EA6AC10F7D
:10138000E96E000EEA22EF5014C0E7FFE75204E0D6
:10139000E8427F0BE706FCE1030B846E320EE66E3B
:1013A000E0EC19F0E552400E836E816A00016F5146
:1013B000EA6AC10FE96E000EEA22EF503F0B806E21
:1013C000060E146E6F51EA6AC10FE96E000EEA2232
:1013D000EF5014C0E7FFE75204E0E8427F0BE70656
:1013E000FCE1030B846E320EE66EE0EC19F0E55280
:1013F000800E836E816A00017051EA6AC10FE96E46
:10140000000EEA22EF503F0B806E060E146E7051F4
:10141000EA6AC10FE96E000EEA22EF5014C0E7FF3E
:10142000E75204E0E8427F0BE706FCE1030B846E21
:10143000320EE66EE0EC19F0E552836A010E816E21
:1014400000017151EA6AC10FE96E000EEA22EF5005
:101450003F0B806E060E146E7151EA6AC10FE96E81
:10146000000EEA22EF5014C0E7FFE75204E0E84222
:101470007F0BE706FCE1030B846E320EE66EE0ECB8
:1014800019F0E552836A020E816E00017251EA6A18
:10149000C10FE96E000EEA22EF503F0B806E060E80
:1014A000146E7251EA6AC10FE96E000EEA22EF5023
:1014B00014C0E7FFE75204E0E8427F0BE706FCE1D7
:1014C0000109846E320EE66EE0EC19F0E552836A93
:1014D000040E816E00017351EA6AC10FE96E000EBD
:1014E000EA22EF503F0B806E060E146E7351EA6ACB
:1014F000C10FE96E000EEA22EF5014C0E7FFE75279
:1015000004E0E8427F0BE706FCE1030B846E000178
:10151000CD07000ECE5BCF5BD05BCD51CE11CF118E
:10152000D01106E1CC6BCD69010ECE6FCF6BD06BC5
:10153000CC510CE181BE0AD0CD69010ECE6FCF6BCC
:10154000D06BE1EC0FF00001010ECC6F8350200B4B
:1015500001E0010E0001965D04E0010E986F45EC7C
:1015600010F08250800B01E0010E0001975D02E057
:10157000010E986F010E996F45EC10F0F294E55250
:1015800000EE13F0040EE80403E3E5CFEDFFFBD714
:1015900000EE0FF0100EE80403E3E5CFEDFFFBD7FC
:1015A000E5CFFAFFE5CFF4FFE5CFF3FFE5CFF5FF99
:1015B000E5CFF7FFE5CFF6FFE5CFEAFFE5CFE9FF9F
:1015C000E5CFDAFF1100D8CFE4FFE0CFE4FFE46E0F
:1015D000DACFE4FFE2CFDAFFE652E552E5CFDAFFF9
:1015E000E550E5CFE0FFE5CFD8FF100065D8926A5F
:1015F000936A956A966A8068816A836A8468938E22
:10160000958A948E968494809482948439EC10F018
:101610000001786B796B7A6B7B6B070E846F856F3B
:10162000866B876B090E886F896B8A6B8B6B84C0A6
:1016300006F085C007F086C008F087C009F00A0EE2
:101640000B6E0C6A0D6A0E6A28EC19F0025000014C
:1016500088257C6F035089217D6F04508A217E6F1D
:1016600005508B217F6F78C0E6FF79C0E6FF7AC016
:10167000E6FF7BC0E6FFA5D9E552E552E552E5520B
:101680007CC0E6FF7DC0E6FF7EC0E6FF7FC0E6FFD0
:1016900018DBE552E552E552E552200EF26E840E5B
:1016A000F16ED08ED76AD66AC70ED56EF28EA7ECD1
:1016B00010F00ED8FCD712000F0EC11251EC10F032
:1016C00062EF0BF00001D16BD26BD36BD46B1200C5
:1016D000D9CFE6FFE1CFD9FF020EE126200E0001AF
:1016E0009C5D03E36D50020B01E030D10001D1514C
:1016F000D21102E1000E08D0D1C0E9FFD2C0EAFF4A
:10170000EF50800B01E0010E000901E01FD1D56B05
:1017100004013651610A01E1B2D0100A5CE0F00A1E
:1017200001E001D10001CC0512E10401810E766FC8
:10173000010E776F6AC078F46BC079F46CC07AF4EC
:101740006DC07BF46EC07CF40001CC6B20D0040132
:10175000810E766F010EDE6EDD6ADECF10F0DDCF1A
:1017600011F0D890115004E6400E105C000E115894
:101770000EE2DECFE9FFDDCFEAFF760EE926040EAA
:10178000EA22EF6ADF2A010E01E3DB2AE6D7000135
:10179000D351D41102E1000E08D0D3C0E9FFD4C068
:1017A000EAFFEF50800B01E0010E000913E1400E4B
:1017B000E66E760EE66E040EE66E010EE66EE66EE0
:1017C00073EC17F0106E050EE15E1050F3CFD3F0FE
:1017D000F4CFD4F0A8D0000198510DE00401710EAF
:1017E000766F010E776F83BA02D0786B01D0786F75
:1017F0000001986B20D00401710E766F010EDE6E31
:10180000DD6ADECF10F0DDCF11F0D890115004E684
:10181000400E105C000E11580EE2DECFE9FFDDCF66
:10182000EAFF760EE926040EEA22EF6ADF2A010EAD
:1018300001E3DB2AE6D70001D351D41102E1000E07
:1018400008D0D3C0E9FFD4C0EAFFEF50800B01E01D
:10185000010E000913E1400EE66E760EE66E040EF0
:10186000E66E010EE66EE66E73EC17F0106E050E76
:10187000E15E1050F3CFD3F0F4CFD4F054D0000198
:1018800099510DE00401610E766F010E776F82BEF3
:1018900002D0786B01D0786F0001996B20D00401E1
:1018A000610E766F010EDE6EDD6ADECF10F0DDCFE9
:1018B00011F0D890115004E6400E105C000E115843
:1018C0000EE2DECFE9FFDDCFEAFF760EE926040E59
:1018D000EA22EF6ADF2A010E01E3DB2AE6D70001E4
:1018E000D351D41102E1000E08D0D3C0E9FFD4C017
:1018F000EAFFEF50800B01E0010E000913E1400EFA
:10190000E66E760EE66E040EE66E010EE66EE66E8E
:1019100073EC17F0106E050EE15E1050F3CFD3F0AC
:10192000F4CFD4F000D0400EE66E360EE66E040E14
:10193000E66EE66A010EE66E73EC17F0106E050EA9
:10194000E15E1050F3CFD1F0F4CFD2F0020EE15CA3
:1019500002E2E16AE552E16EE552E7CFD9FF1200FB
:10196000120012001200120008EF18F012001E0EF2
:10197000E66E010EE66EC8EC16F0E552E552400E3A
:10198000E66E360EE66E040EE66EE66A010EE66E52
:1019900073EC17F0106E050EE15E1050F3CFD1F02E
:1019A000F4CFD2F012006D840001080E9A6F070E7A
:1019B0009B6F9A07000E9B5B9A519B11FAE16D9405
:1019C0001200D9CFE6FFE1CFD9FF1C0EE126D95096
:1019D000FB0FE96EFF0EDA20EA6E180EEECFDBFF8A
:1019E000190EEECFDBFF1A0EEECFDBFF1B0EEECF94
:1019F000DBFF180EDBCF06F0190EDBCF07F01A0E57
:101A0000DBCF08F01B0EDBCF09F0100E0B6E270E9C
:101A10000C6E0D6A0E6A94EC19F006C0DEFF07C06A
:101A2000DEFF08C0DEFF09C0DDFFDD52DD52D9CF89
:101A3000E9FFDACFEAFFEECF10F0EECF11F0EECFF4
:101A400012F0EFCF13F0100E0B6E270E0C6E0D6A16
:101A50000E6A10C006F011C007F012C008F013C0E3
:101A600009F028EC19F002C010F003C011F004C016
:101A700012F005C013F0D950180FE96EDACFEAFF63
:101A80001050EE5E1150EE5A1250EE5A1350EE5AAC
:101A9000180EDBCF06F0190EDBCF07F01A0EDBCFE6
:101AA00008F01B0EDBCF09F0E80E0B6E030E0C6E78
:101AB0000D6A0E6A94EC19F0040E06C0DBFF050EE9
:101AC00007C0DBFF060E08C0DBFF070E09C0DBFF07
:101AD000040EDBCF10F0050EDBCF11F0060EDBCFCE
:101AE00012F0070EDBCF13F0E80E0B6E030E0C6E38
:101AF0000D6A0E6A10C006F011C007F012C008F09F
:101B000013C009F028EC19F002C010F003C011F066
:101B100004C012F005C013F0D950180FE96EDACFE7
:101B2000EAFF1050EE5E1150EE5A1250EE5A13506A
:101B3000EE5A180EDBCF06F0190EDBCF07F01A0EA7
:101B4000DBCF08F01B0EDBCF09F0640E0B6E0C6AC6
:101B50000D6A0E6A94EC19F0080E06C0DBFF090E40
:101B600007C0DBFF0A0E08C0DBFF0B0E09C0DBFF5E
:101B7000080EDBCF10F0090EDBCF11F00A0EDBCF21
:101B800012F00B0EDBCF13F0640E0B6E0C6A0D6AB5
:101B90000E6A10C006F011C007F012C008F013C0A2
:101BA00009F028EC19F002C010F003C011F004C0D5
:101BB00012F005C013F0D950180FE96EDACFEAFF22
:101BC0001050EE5E1150EE5A1250EE5A1350EE5A6B
:101BD000180EDBCF06F0190EDBCF07F01A0EDBCFA5
:101BE00008F01B0EDBCF09F00A0E0B6E0C6A0D6AB3
:101BF0000E6A94EC19F00C0E06C0DBFF0D0E07C048
:101C0000DBFF0E0E08C0DBFF0F0E09C0DBFF0C0E62
:101C1000DBCF10F00D0EDBCF11F00E0EDBCF12F08C
:101C20000F0EDBCF13F00A0E0B6E0C6A0D6A0E6AF4
:101C300010C006F011C007F012C008F013C009F080
:101C400028EC19F002C010F003C011F004C012F02B
:101C500005C013F0D950180FE96EDACFEAFF105023
:101C6000EE5E1150EE5A1250EE5A1350EE5AD95001
:101C7000180FE96EDACFEAFF100EEECFDBFF110E80
:101C8000EECFDBFF120EEECFDBFF130EEECFDBFF4E
:101C9000000EDFCF6AF0040EDBCF6BF0080EDBCF57
:101CA0006CF00C0EDBCF6DF0100EDBCF6EF01C0E67
:101CB000E15C02E2E16AE552E16EE552E7CFD9FF6D
:101CC0001200D9CFE6FFE1CFD9FF1C0EE126D95093
:101CD000FB0FE96EFF0EDA20EA6E180EEECFDBFF87
:101CE000190EEECFDBFF1A0EEECFDBFF1B0EEECF91
:101CF000DBFF180EDBCF06F0190EDBCF07F01A0E54
:101D0000DBCF08F01B0EDBCF09F0100E0B6E270E99
:101D10000C6E0D6A0E6A94EC19F006C0DEFF07C067
:101D2000DEFF08C0DEFF09C0DDFFDD52DD52D9CF86
:101D3000E9FFDACFEAFFEECF10F0EECF11F0EECFF1
:101D400012F0EFCF13F0100E0B6E270E0C6E0D6A13
:101D50000E6A10C006F011C007F012C008F013C0E0
:101D600009F028EC19F002C010F003C011F004C013
:101D700012F005C013F0D950180FE96EDACFEAFF60
:101D80001050EE5E1150EE5A1250EE5A1350EE5AA9
:101D9000180EDBCF06F0190EDBCF07F01A0EDBCFE3
:101DA00008F01B0EDBCF09F0E80E0B6E030E0C6E75
:101DB0000D6A0E6A94EC19F0040E06C0DBFF050EE6
:101DC00007C0DBFF060E08C0DBFF070E09C0DBFF04
:101DD000040EDBCF10F0050EDBCF11F0060EDBCFCB
:101DE00012F0070EDBCF13F0E80E0B6E030E0C6E35
:101DF0000D6A0E6A10C006F011C007F012C008F09C
:101E000013C009F028EC19F002C010F003C011F063
:101E100004C012F005C013F0D950180FE96EDACFE4
:101E2000EAFF1050EE5E1150EE5A1250EE5A135067
:101E3000EE5A180EDBCF06F0190EDBCF07F01A0EA4
:101E4000DBCF08F01B0EDBCF09F0640E0B6E0C6AC3
:101E50000D6A0E6A94EC19F0080E06C0DBFF090E3D
:101E600007C0DBFF0A0E08C0DBFF0B0E09C0DBFF5B
:101E7000080EDBCF10F0090EDBCF11F00A0EDBCF1E
:101E800012F00B0EDBCF13F0640E0B6E0C6A0D6AB2
:101E90000E6A10C006F011C007F012C008F013C09F
:101EA00009F028EC19F002C010F003C011F004C0D2
:101EB00012F005C013F0D950180FE96EDACFEAFF1F
:101EC0001050EE5E1150EE5A1250EE5A1350EE5A68
:101ED000180EDBCF06F0190EDBCF07F01A0EDBCFA2
:101EE00008F01B0EDBCF09F00A0E0B6E0C6A0D6AB0
:101EF0000E6A94EC19F00C0E06C0DBFF0D0E07C045
:101F0000DBFF0E0E08C0DBFF0F0E09C0DBFF0C0E5F
:101F1000DBCF10F00D0EDBCF11F00E0EDBCF12F089
:101F20000F0EDBCF13F00A0E0B6E0C6A0D6A0E6AF1
:101F300010C006F011C007F012C008F013C009F07D
:101F400028EC19F002C010F003C011F004C012F028
:101F500005C013F0D950180FE96EDACFEAFF105020
:101F6000EE5E1150EE5A1250EE5A1350EE5AD950FE
:101F7000180FE96EDACFEAFF100EEECFDBFF110E7D
:101F8000EECFDBFF120EEECFDBFF130EEECFDBFF4B
:101F9000000EDFCF6FF0040EDBCF70F0080EDBCF4A
:101FA00071F00C0EDBCF72F0100EDBCF73F01C0E55
:101FB000E15C02E2E16AE552E16EE552E7CFD9FF6A
:101FC00012007CC080F07DC081F07EC082F07FC0B6
:101FD00083F078C07CF079C07DF07AC07EF07BC061
:101FE0007FF080C078F081C079F082C07AF083C041
:101FF0007BF078C0E6FF79C0E6FF7AC0E6FF7BC0E1
:10200000E6FFDFDCE552E552E552E5527CC0E6FF33
:102010007DC0E6FF7EC0E6FF7FC0E6FF52DEE552F0
:10202000E552E552E5527CC084F07DC085F07EC06B
:1020300086F07FC087F00A0E0B6E0C6A0D6A0E6A7E
:1020400084C006F085C007F086C008F087C009F09C
:1020500060EC19F006C084F007C085F008C086F077
:1020600009C087F073C088F00001896B8A6B8B6BA5
:1020700012008450040B01E0010E0001946F8250A5
:10208000020B01E0010E956F12008350200B01E05E
:10209000010E0001966F8250800B01E0010E976FD8
:0220A00012002C
:0E20A200D9CFE6FFE1CFD9FFE6526A6A686A3D
:1020B0009F0E6B6EFB0E696E6D8C6D9C6E6A000ED2
:1020C000E66EE66AE66A710EE66E0F0EE66EB8EC34
:1020D00019F0106E050EE15E1050DF6ADF50106ED1
:1020E000116A080E105C000E115810E2DF50040D4A
:1020F000F3CFE9FFF4CFEAFF000EE926040EEA224F
:10210000EE6AEE6AEE6AEE6ADF2AE8D7160E706EA5
:1021100068A60CD0030EE66E680EE66E0F0EE66E35
:10212000ECEC17F0E552E552E552F2D70001AF6B47
:10213000B46BB56BB66B6D98080EA76F040EA86FE5
:102140009D6B9C6BE552E552E7CFD9FF1200D9CFCA
:10215000E6FFE1CFD9FFE65200019C5111E105D025
:102160006D6A696A00019C6B7BD06D6A696A6DB6A5
:1021700002D06D86FCD70001010E9C6F160E6F6EAB
:102180009C0508E16DBA06D0686A696A6980698849
:10219000020E9C6F6850040B04E06950040B01E0D0
:1021A00096D86DB25DD06850010B11E06950010BFB
:1021B0000EE077DF0001040E9C6F0401200E026F19
:1021C000040E036F080E016F006B8C0E0013685035
:1021D000100B04E06950100B01E06AD86850400B06
:1021E00010E06950400B0DE0B2EC0CF0060EE66E0C
:1021F000680EE66E0F0EE66EECEC17F0E552E55257
:10220000E5526850200B04E06950200B01E02DD806
:102210006850020B06E06950020B03E0B3EC0CF0CF
:102220006A6A040E00019C5D01E21AD069A618D00A
:10223000DF6A040EDF5C14E268A60FD06CCFBCF03E
:10224000030EE66E680EE66E0F0EE66EECEC17F00F
:10225000E552E552E5524ED801D002D0DF2AE9D747
:10226000E552E552E7CFD9FF120070A015D09FC00C
:10227000E9FFA0C0EAFFEF5080080DE1A7C0E9FF29
:10228000A8C0EAFFEF50840806E19FC0E9FFA0C0A4
:10229000EAFF8C0EEF6E7090050EE66E680EE66E2D
:1022A0000F0EE66EECEC17F0E552E552E552120027
:1022B0006984040EE66E680EE66E0F0EE66EECECB8
:1022C00017F0E552E552E5526D82B0EF0CF06D92D9
:1022D000B1EC0CF0699468A40CD0020EE66E680EA6
:1022E000E66E0F0EE66EECEC17F0E552E552E552A5
:1022F000F2D71200FD0E0001BC1520E17E0EBC15C8
:10230000E8407F0B040DF3CF9FF0F4CFA0F0000E58
:102310009F27040EA0239FC0A1F0A0C0A2F0A1752A
:102320009FC0E9FFA0C0EAFFEF503C0BE842E84243
:102330000D0802E109D801D01ED805D0FD0EBC154C
:10234000040801E120D81200A7C0E9FFA8C0EAFFF5
:10235000EF50800B05E0A7C0E9FFA8C0EAFFEF6AD5
:102360000001AB6BAC6BB06BB16BAF6BF7D8B4EC7F
:102370000CF043EF14F0020E0001AC5D02E1E0DB73
:1023800001D04ED81200D9CFE6FFE1CFD9FFE652F7
:10239000A7C0E9FFA8C0EAFFEF50400B01E0010E23
:1023A000DF6E0001A775080E9C5D0AE122C46EFF76
:1023B0006E50000803E2100E9C6F02D0040E9C6F5A
:1023C000AC0528E1A7C0E9FFA8C0EAFF020EE92694
:1023D000000EEA22280EEE6E040EED6E26DB020ED3
:1023E0000001AB5D07E1A7C0E9FFA8C0EAFF840ECA
:1023F000EF6E0FD0DF5007E1A7C0E9FFA8C0EAFFEA
:10240000C80EEF6E06D0A7C0E9FFA8C0EAFF880E8D
:10241000EF6E01D005D8E552E552E7CFD9FF1200A3
:10242000D9CFE6FFE1CFD9FF030EE126020E00016E
:10243000AC5D4AE16D50100B47E09FC0E9FFA0C0C2
:10244000EAFFEE52EF50106E116A080E101801E10B
:1024500011503AE19FC0E9FFA0C0EAFFEF503C0BEA
:10246000E842E8420D0830E1A1C0E9FFA2C0EAFF5E
:10247000EF50800B29E1A1C0E9FFA2C0EAFF020EE4
:10248000E926000EEA22200EEE6E040EED6EDF6AE3
:10249000DF50106E116A080E105C000E115813E226
:1024A000DF50EA6A280FE96E040EEA22EF50E66E6A
:1024B000DF50EA6A200FE96E040EEA22E552E75087
:1024C000EF6EDF2AE5D731D0AC6BA1C0E9FFA2C027
:1024D000EAFFEE52080EEF6EA1C0E9FFA2C0EAFFCC
:1024E000020EE926000EEA22200EEE6E040EED6EBC
:1024F000A1C0E9FFA2C0EAFF8C0EEF6EA7C0E9FF02
:10250000A8C0EAFFEF6A040EA719106EA8C011F068
:10251000010E10C0DBFF020E11C0DBFF010EDBCF8E
:10252000E9FF020EDBCFEAFFEF6A0001B4AF0CD087
:10253000B751B81107E005D0B8C0FAFF0001B75194
:10254000F96EFADF0001B49F030EE15C02E2E16A7A
:10255000E552E16EE552E7CFD9FF120004012051A8
:10256000600BE842E842E842E842E842000901E044
:102570004CD021510C0A48E00B0A43E00C0A35E02C
:10258000010A26E00B0A22E0020A20E0030A1CE00E
:10259000080A10E0010A0CE00F0A08E0030A01E053
:1025A00033D00001AF8F080E9C6F2FD0BCD82DD038
:1025B00058DB2BD000019D0EAD6F000EAE6FAF81CA
:1025C000010EB06FAF8F21D002D91FD01FD81DD000
:1025D00024510001AD6FAE6B9E0EAD27000EAE23F1
:1025E000AF81010EB06FAF8F10D00001AF8F04012B
:1025F0002451EA6A9E0FE96E000EEA2222C4EFFF20
:1026000004D0B6EC0CF001D000D01200D9CFE6FF18
:10261000E1CFD9FF050EE1260401220510E120518A
:102620001F0B00090CE10001AF8F030E0401215DB7
:1026300004E10001010EBB6F02D00001BB6B04017D
:10264000225167E120511F0B020863E124510F0B57
:1026500000095FE00001AF8F040EDB6A020EF36E2B
:10266000040EDBCFF4FFF350F45C53E2000EDE6E99
:10267000040EDD6E040EDBCFE6FF04012451800B57
:1026800001E0010EE824126E24510F0B040DF350EB
:102690001224E552E724040DF3CF10F0F4CF11F02B
:1026A000D9CFE9FFDACFEAFF1050EE261150ED2224
:1026B000030E215D07E1DECFE9FFDDCFEAFF840EE7
:1026C000EF6E24D024510F0B116A700F106E0F0E95
:1026D0001122020E10C0DBFF030E11C0DBFF020E41
:1026E000DBCFE9FF030EDBCFEAFFEE90ED5224AF24
:1026F00007D0DECFE9FFDDCFEAFF400EEF6E06D058
:10270000DECFE9FFDDCFEAFFC80EEF6E040EDB2A55
:10271000A5D7050EE15C02E2E16AE552E16EE55201
:10272000E7CFD9FF1200800E0401205D4FE10001C8
:10273000C00EAF6F04012351030A2EE0010A0EE020
:10274000030A03E00001AF6B41D00001FE0EAD6F44
:10275000300EAE6F120EB06FB16B38D02251F66EE4
:10276000F76AD890F636F736AA0EF626310EF7221B
:102770000900F5CFADF00A00F5CFAEF0020E000172
:10278000F76AAD25F66EAE51F7220900F5CFB0F02D
:102790000A00F5CFB1F01AD02251F66EF76AD89040
:1027A000F636F736AC0EF626310EF7220900F5CFD5
:1027B000ADF00A00F5CFAEF0ADC0F6FFAEC0F7FF4A
:1027C0000800F5500001B06FB16B00D01200D9CFF6
:1027D000E6FFE1CFD9FF020EE1260401286B296B49
:1027E00020511F0B020A12E0030A0DE0010A01E06A
:1027F00036D00001AF8F040128810001BB0502E142
:10280000040128832CD00001AF8F29D00001AF8FA5
:10281000000EDE6E040EDD6E04012451800B01E01B
:10282000010EE824126E24510F0B040DF3501224F4
:10283000040DF3CF10F0F4CF11F0D9CFE9FFDACFC8
:10284000EAFF1050EE261150ED22DECFE9FFDDCF7A
:10285000EAFFEF50040B02E0010E286F00D00001E8
:10286000AFAF07D0280EAD6F040EAE6FAF81020E72
:10287000B06F020EE15C02E2E16AE552E16EE55200
:10288000E7CFD9FF12006D980001AFBF4AD0B4AFB7
:1028900028D0020EAC6FA7C0E9FFA8C0EAFFEE5235
:1028A000EF6AA7C0E9FFA8C0EAFFC80EEF6EA1C09B
:1028B000E9FFA2C0EAFFEE52080EEF6EA1C0E9FFE9
:1028C000A2C0EAFF020EE926000EEA22280EEE6EF2
:1028D000040EED6EA1C0E9FFA2C0EAFFC80EEF6EC4
:1028E0001FD0A1C0E9FFA2C0EAFFEE52080EEF6EB2
:1028F000A1C0E9FFA2C0EAFF020EE926000EEA220B
:10290000200EEE6E040EED6EA1C0E9FFA2C0EAFF3C
:102910008C0EEF6EA7C0E9FFA8C0EAFF840EEF6E31
:1029200083D0B4BF81D0040120AF56D00001B05194
:102930000401265D0001B1510401275904E226C4B7
:10294000B0F027C4B1F071D80001010EAC6FA1C086
:10295000E9FFA2C0EAFFEE52080EEF6EA1C0E9FF48
:10296000A2C0EAFF020EE926000EEA22200EEE6E59
:10297000040EED6EA1C0E9FFA2C0EAFF800EEF6E6B
:102980009FC0E9FFA0C0EAFFEE52080EEF6E9FC0A5
:10299000E9FFA0C0EAFF020EE926000EEA22200E9F
:1029A000EE6E040EED6E9FC0E9FFA0C0EAFF800E40
:1029B000EF6EA7C0E9FFA8C0EAFF020EE926000EED
:1029C000EA22280EEE6E040EED6EA7C0E9FFA8C045
:1029D000EAFFC80EEF6E28D00001020EAC6FA7C050
:1029E000E9FFA8C0EAFFEE52EF6AA7C0E9FFA8C05E
:1029F000EAFFC80EEF6EA1C0E9FFA2C0EAFFEE52E7
:102A0000080EEF6EA1C0E9FFA2C0EAFF020EE926A0
:102A1000000EEA22280EEE6E040EED6EA1C0E9FF54
:102A2000A2C0EAFFC80EEF6E1200D9CFE6FFE1CFD9
:102A3000D9FF020EE1260001080EB05D000EB1596B
:102A40000EE2B0C0DEFFB1C0DDFFAB5103E1010E0D
:102A5000AB6F04D0AB0502E1020EAB6F03D0080EE2
:102A6000DE6EDD6AA7C0E9FFA8C0EAFFEF92A7C04B
:102A7000E9FFA8C0EAFFEF90A7C0E9FFA8C0EAFFFE
:102A8000010EDB50EF12A7C0E9FFA8C0EAFFEE522B
:102A9000DFCFEFFF000EDB50B05F010EDB50B15B0C
:102AA000280EB96F040EBA6FAFB121D0D9CFE9FFAC
:102AB000DACFEAFFEE50ED1019E0ADC0F6FFAEC080
:102AC000F7FFAD2B000EAE230800F550E66EB9C03F
:102AD000E9FFBAC0EAFFB92B000EBA23E552E7506E
:102AE000EF6EDF06010E01E2DB06E0D71FD0D9CF83
:102AF000E9FFDACFEAFFEE50ED1018E0ADC0E9FFD4
:102B0000AEC0EAFFAD2B000EAE23EF50E66EB9C0AB
:102B1000E9FFBAC0EAFFB92B000EBA23E552E7502D
:102B2000EF6EDF06010E01E2DB06E1D7020EE15C8B
:102B300002E2E16AE552E16EE552E7CFD9FF120009
:102B4000D9CFE6FFE1CFD9FF020EE1269FC0E9FF12
:102B5000A0C0EAFFEE52EFCFDFFFDFCF10F0105042
:102B60000001B55D000EB65903E2B5C0DFFF09D024
:102B7000DF50106E116A1050B55DB56F1150B65927
:102B8000B66F010EDB6ADF50F36E010EDBCFF4FF90
:102B9000F350F45C16E2010EDB50EA6A280FE96E8E
:102BA000040EEA22EF50E66EB2C0E9FFB3C0EAFFBE
:102BB000B22B000EB323E552E750EF6E010EDB2A75
:102BC000E2D7000ED880B555000EB65528E2A1C058
:102BD000E9FFA2C0EAFFEE52080EEF6EA1C0E9FFC6
:102BE000A2C0EAFF020EE926000EEA22280EEE6ECF
:102BF000040EED6E9FC0E9FFA0C0EAFFEF50400B4E
:102C000007E1A1C0E9FFA2C0EAFFC80EEF6E06D03F
:102C1000A1C0E9FFA2C0EAFF880EEF6E18D0A1C0E4
:102C2000E9FFA2C0EAFF020EE926000EEA22200E0A
:102C3000EE6E040EED6EB751B81107E005D0B8C0C6
:102C4000FAFF0001B751F96EFADF0001B49F020EDE
:102C5000E15C02E2E16AE552E16EE552E7CFD9FFBD
:102C600012000001AF8F000EE66EE66AE66A710E92
:102C7000E66E0F0EE66EB8EC19F0106E050EE15E12
:102C80001050010EE66EE66AE66A9E0EE66E000ED3
:102C9000E66EB8EC19F0106E050EE15E105022C41D
:102CA0009DF00401225104E10001100E9C6F05D03B
:102CB0000001200E9C6FB7EC0CF01200D9CFE6FF9C
:102CC000E1CFD9FF020EE126000EDE6E040EDD6EAE
:102CD000FD0EDB50E824126EFE0EDB50040DF350A7
:102CE0001224040DF350106E116A020E0F0B05E052
:102CF000D89011321032E806FBE1D8901036113628
:102D0000D89010361136D9CFE9FFDACFEAFF10504C
:102D1000EE261150ED22DECFE9FFDDCFEAFFEF9E78
:102D2000FD0EDB500FE1FE0EEA6ADB34FE0BEA36E5
:102D3000E96EA30EE926000EEA22DECFEEFFDDCF1C
:102D4000EDFF0ED0FE0EEA6ADB34FE0BEA36E96ECA
:102D5000A70EE926000EEA22DECFEEFFDDCFEDFF63
:102D6000DECFE9FFDDCFEAFFEF9CDECFE9FFDDCF6D
:102D7000EAFF040EE926000EEA22EF8C020EE15C67
:102D800002E2E16AE552E16EE552E7CFD9FF1200B7
:102D9000D9CFE6FFE1CFD9FF020EE126FE0EDB50D0
:102DA000116A700F106E0F0E112210C0DEFF11C0DD
:102DB000DDFFFD0EDB50E66EDECFE9FFDDCFEAFF83
:102DC000E552E750EE6EED6AFD0EDBA407D0E66A31
:102DD000FE0EDBCFE6FF72DFE552E552FD0EDBA211
:102DE00008D0010EE66EFE0EDBCFE6FF67DFE55290
:102DF000E552020EE15C02E2E16AE552E16EE55263
:102E0000E7CFD9FF1200D9CFE6FFE1CFD9FF020EFD
:102E1000E126FE0EDB5020E1A1C0E9FFA2C0EAFFDF
:102E2000EE52080EEF6EA1C0E9FFA2C0EAFF020E4B
:102E3000E926000EEA22200EEE6E040EED6EA1C011
:102E4000E9FFA2C0EAFF8C0EEF6EA7C0E9FFA8C0A1
:102E5000EAFF840EEF6E3DD0FD0EDB50E824126ECB
:102E6000FE0EDB50040DF3501224040DF3CF10F0CE
:102E7000F4CF11F0000E1026040E112210C0DEFF58
:102E800011C0DDFF840E106EDECFE9FFDDCFEAFF5B
:102E90001050EF12FD0EDB50E824126EFE0EDB50D8
:102EA000040DF3501224010F040DF3CF10F0F4CFF2
:102EB00011F0000E1026040E112210C0DEFF11C00A
:102EC000DDFF840E106EDECFE9FFDDCFEAFF10508C
:102ED000EF12020EE15C02E2E16AE552E16EE552B8
:102EE000E7CFD9FF1200D9CFE6FFE1CFD9FF020E1D
:102EF000E126FD0EDB500FE0FE0EEA6ADB34FE0B2E
:102F0000EA36E96EA70EE926000EEA22EECFDEFFD2
:102F1000EDCFDDFF0ED0FE0EEA6ADB34FE0BEA36A3
:102F2000E96EA30EE926000EEA22EECFDEFFEDCF1A
:102F3000DDFFDECFE9FFDDCFEAFF020EE926000E5E
:102F4000EA22FB0EDBCFEEFFFC0EDBCFEDFFDECF88
:102F5000E9FFDDCFEAFFEE52FA0EDBCFEFFF400EC6
:102F6000106EDECFE9FFDDCFEAFF1050EF16880EBE
:102F7000106EDECFE9FFDDCFEAFF1050EF12FD0E3D
:102F8000DB500CE0FE0EEA6ADB34FE0BEA36E96E3B
:102F9000A70EE926000EEA22EF740BD0FE0EEA6AB5
:102FA000DB34FE0BEA36E96EA30EE926000EEA22B8
:102FB000EF74DECF10F0DDCF11F010C0F3FF11C0C1
:102FC000F4FF020EE15C03E200D0E16AE552E16E3B
:102FD000E552E7CFD9FF1200D9CFE6FFE1CFD9FF05
:102FE000010EF36EFC0EDB5004E0D890F336E806D9
:102FF000FCE1F350E81C106EFD0EDBCFE9FFFE0E86
:10300000DBCFEAFF1050EF16E552E7CFD9FF1200F1
:10301000040120511F0B010801E06DD0245101E093
:103020006AD0060E215D28E12351230A21E0010A1E
:1030300011E0030A01E020D000019D050AE1000132
:10304000220EAD6F310EAE6F090EB06FB16BC00EB8
:10305000AF6F12D000019D050AE100018D0EAD6F2A
:10306000310EAE6F1D0EB06FB16BC00EAF6F04D0DE
:103070000001800EAF6F00D004012051600BE842C8
:10308000E842E842E842E842010801E034D0215138
:103090000B0A2BE0080A1EE0090A16E0080A09E0FC
:1030A0000B0A05E0080A01E026D026D824D025D84E
:1030B00022D00001E00EAD6F000EAE6F010EB06FBA
:1030C000B16BC10EAF6F17D00001800EAF6F23C47C
:1030D000E0F011D00001E10EAD6F000EAE6F010EF9
:1030E000B06FB16B810EAF6F06D00001800EAF6F75
:0E30F00022C4E1F000D0120012001200120003
:0230FE001201BD
:10310000000200000008D0162204020001020001A3
:1031100009022900010100C0320904000002030075
:103120000000092111010001221D00070581034053
:1031300000010705010340000104030904300346B0
:10314000006C00690067006800740020004400659E
:103150000063006B002000530069006D0075006C77
:10316000006100740069006F006E00730020034668
:103170000044005300490020004100440046002064
:10318000004D006F00640075006C0065000600FFD4
:103190000901A10119012940150026FF00750895B4
:1031A000408102190129409102C0103139313D316D
:0231B0006D317F
:0E31B2002A0EF66E100EF76E000EF86E00017B
:1031C0000900F550DB6F0900F550DC6F03E1DB67A8
:1031D00001D03DD00900F550D66F0900F550D76FEA
:1031E0000900F550D86F09000900F550E96E090093
:1031F000F550EA6E090009000900F550D96F090081
:10320000F550DA6F09000900F6CFDDF0F7CFDEF0F8
:10321000F8CFDFF0D6C0F6FFD7C0F7FFD8C0F8FF71
:103220000001D95302E1DA5307E00900F550EE6ED0
:10323000D907F8E2DA07F9D7DDC0F6FFDEC0F7FFFD
:10324000DFC0F8FF0001DB07000EDC5BBFD7120018
:1032500006500B02F3CF02F0F4CF03F00C02F35050
:103260000326000EF420046E06500D02F3500426CF
:10327000000EF420056E06500E02F350052607508E
:103280000B02F3500326F4500422000E05220750CF
:103290000C02F3500426F450052207500D02F3509F
:1032A000052608500B02F3500426F450052208505E
:1032B0000C02F350052609500B02F35005261200AC
:1032C000006AE86A0EAE6DEF19F00B6C0C1E0D1E55
:1032D0000E1E0C220D220E22001E09AE78EF19F0F0
:1032E000066C071E081E091E072208220922001E5E
:1032F00094EC19F009BE8FEF19F000AE000C066CCB
:10330000071E081E091EE86A072208220922026C0D
:10331000031E041E051E032204220522000C00BE0B
:083320007FEF19F00188FF0C9A
:08332800056A046A036A026AE7
:10333000200EE76ED8900636073608360936023674
:103340000336043605360B50025C0C5003580D5002
:1033500004580E50055809E30B50025E0C50035AF6
:103360000D50045A0E50055A062AE72EE4D71200D3
:10337000FE0EE3CFE9FFFF0EE3CFEAFFE9CFF3FF55
:10338000EACFF4FFFB0EE35003E1FC0EE35009E04B
:10339000FB0EE30602E2FC0EE306FD0EE350EE6ECA
:0433A000F1D712004F
:0C33A40013EE00F023EE00F0F86A019C2C
:1033B000D9EC18F0F5EC19F0F6EC0AF0FBD7120096
:1033C000FF0EE350156E1B0E00D001D0200EE76EED
:0C33D000E72EFED7152EFAD700D0120011
:0433DC0000EE00F00F
:0A33E0000F0EEE6AEA62FDD712003C
:0233EA001200CF
:0433EC00BD309EBA98
:1033F00033AB2FB0BFB30000FF010000000000009E
:0134000001CA
:020000040030CA
:0100000026D9
:010001000EF0
:010002003FBE
:010003001EDE
:010005008179
:010006008178
:010008000FE8
:01000900C036
:01000A000FE6
:01000B00E014
:01000C000FE4
:01000D0040B2
:00000001FF
